{
  "contractName": "Bridge",
  "abi": [
    {
      "inputs": [
        {
          "internalType": "uint8",
          "name": "domainID",
          "type": "uint8"
        },
        {
          "internalType": "address[]",
          "name": "initialRelayers",
          "type": "address[]"
        },
        {
          "internalType": "uint256",
          "name": "initialRelayerThreshold",
          "type": "uint256"
        },
        {
          "internalType": "uint256",
          "name": "fee",
          "type": "uint256"
        },
        {
          "internalType": "uint256",
          "name": "expiry",
          "type": "uint256"
        }
      ],
      "stateMutability": "nonpayable",
      "type": "constructor"
    },
    {
      "anonymous": false,
      "inputs": [
        {
          "indexed": false,
          "internalType": "uint8",
          "name": "destinationDomainID",
          "type": "uint8"
        },
        {
          "indexed": false,
          "internalType": "bytes32",
          "name": "resourceID",
          "type": "bytes32"
        },
        {
          "indexed": false,
          "internalType": "uint64",
          "name": "depositNonce",
          "type": "uint64"
        },
        {
          "indexed": true,
          "internalType": "address",
          "name": "user",
          "type": "address"
        },
        {
          "indexed": false,
          "internalType": "bytes",
          "name": "data",
          "type": "bytes"
        },
        {
          "indexed": false,
          "internalType": "bytes",
          "name": "handlerResponse",
          "type": "bytes"
        }
      ],
      "name": "Deposit",
      "type": "event"
    },
    {
      "anonymous": false,
      "inputs": [
        {
          "indexed": false,
          "internalType": "bytes",
          "name": "lowLevelData",
          "type": "bytes"
        }
      ],
      "name": "FailedHandlerExecution",
      "type": "event"
    },
    {
      "anonymous": false,
      "inputs": [
        {
          "indexed": false,
          "internalType": "address",
          "name": "account",
          "type": "address"
        }
      ],
      "name": "Paused",
      "type": "event"
    },
    {
      "anonymous": false,
      "inputs": [
        {
          "indexed": false,
          "internalType": "uint8",
          "name": "originDomainID",
          "type": "uint8"
        },
        {
          "indexed": false,
          "internalType": "uint64",
          "name": "depositNonce",
          "type": "uint64"
        },
        {
          "indexed": false,
          "internalType": "enum Bridge.ProposalStatus",
          "name": "status",
          "type": "uint8"
        },
        {
          "indexed": false,
          "internalType": "bytes32",
          "name": "dataHash",
          "type": "bytes32"
        }
      ],
      "name": "ProposalEvent",
      "type": "event"
    },
    {
      "anonymous": false,
      "inputs": [
        {
          "indexed": false,
          "internalType": "uint8",
          "name": "originDomainID",
          "type": "uint8"
        },
        {
          "indexed": false,
          "internalType": "uint64",
          "name": "depositNonce",
          "type": "uint64"
        },
        {
          "indexed": false,
          "internalType": "enum Bridge.ProposalStatus",
          "name": "status",
          "type": "uint8"
        },
        {
          "indexed": false,
          "internalType": "bytes32",
          "name": "dataHash",
          "type": "bytes32"
        }
      ],
      "name": "ProposalVote",
      "type": "event"
    },
    {
      "anonymous": false,
      "inputs": [
        {
          "indexed": false,
          "internalType": "address",
          "name": "relayer",
          "type": "address"
        }
      ],
      "name": "RelayerAdded",
      "type": "event"
    },
    {
      "anonymous": false,
      "inputs": [
        {
          "indexed": false,
          "internalType": "address",
          "name": "relayer",
          "type": "address"
        }
      ],
      "name": "RelayerRemoved",
      "type": "event"
    },
    {
      "anonymous": false,
      "inputs": [
        {
          "indexed": false,
          "internalType": "uint256",
          "name": "newThreshold",
          "type": "uint256"
        }
      ],
      "name": "RelayerThresholdChanged",
      "type": "event"
    },
    {
      "anonymous": false,
      "inputs": [
        {
          "indexed": true,
          "internalType": "bytes32",
          "name": "role",
          "type": "bytes32"
        },
        {
          "indexed": true,
          "internalType": "address",
          "name": "account",
          "type": "address"
        },
        {
          "indexed": true,
          "internalType": "address",
          "name": "sender",
          "type": "address"
        }
      ],
      "name": "RoleGranted",
      "type": "event"
    },
    {
      "anonymous": false,
      "inputs": [
        {
          "indexed": true,
          "internalType": "bytes32",
          "name": "role",
          "type": "bytes32"
        },
        {
          "indexed": true,
          "internalType": "address",
          "name": "account",
          "type": "address"
        },
        {
          "indexed": true,
          "internalType": "address",
          "name": "sender",
          "type": "address"
        }
      ],
      "name": "RoleRevoked",
      "type": "event"
    },
    {
      "anonymous": false,
      "inputs": [
        {
          "indexed": false,
          "internalType": "address",
          "name": "account",
          "type": "address"
        }
      ],
      "name": "Unpaused",
      "type": "event"
    },
    {
      "inputs": [],
      "name": "DEFAULT_ADMIN_ROLE",
      "outputs": [
        {
          "internalType": "bytes32",
          "name": "",
          "type": "bytes32"
        }
      ],
      "stateMutability": "view",
      "type": "function"
    },
    {
      "inputs": [],
      "name": "MAX_RELAYERS",
      "outputs": [
        {
          "internalType": "uint256",
          "name": "",
          "type": "uint256"
        }
      ],
      "stateMutability": "view",
      "type": "function"
    },
    {
      "inputs": [],
      "name": "RELAYER_ROLE",
      "outputs": [
        {
          "internalType": "bytes32",
          "name": "",
          "type": "bytes32"
        }
      ],
      "stateMutability": "view",
      "type": "function"
    },
    {
      "inputs": [
        {
          "internalType": "uint8",
          "name": "",
          "type": "uint8"
        }
      ],
      "name": "_depositCounts",
      "outputs": [
        {
          "internalType": "uint64",
          "name": "",
          "type": "uint64"
        }
      ],
      "stateMutability": "view",
      "type": "function"
    },
    {
      "inputs": [],
      "name": "_domainID",
      "outputs": [
        {
          "internalType": "uint8",
          "name": "",
          "type": "uint8"
        }
      ],
      "stateMutability": "view",
      "type": "function"
    },
    {
      "inputs": [],
      "name": "_expiry",
      "outputs": [
        {
          "internalType": "uint40",
          "name": "",
          "type": "uint40"
        }
      ],
      "stateMutability": "view",
      "type": "function"
    },
    {
      "inputs": [],
      "name": "_fee",
      "outputs": [
        {
          "internalType": "uint128",
          "name": "",
          "type": "uint128"
        }
      ],
      "stateMutability": "view",
      "type": "function"
    },
    {
      "inputs": [],
      "name": "_relayerThreshold",
      "outputs": [
        {
          "internalType": "uint8",
          "name": "",
          "type": "uint8"
        }
      ],
      "stateMutability": "view",
      "type": "function"
    },
    {
      "inputs": [
        {
          "internalType": "bytes32",
          "name": "",
          "type": "bytes32"
        }
      ],
      "name": "_resourceIDToHandlerAddress",
      "outputs": [
        {
          "internalType": "address",
          "name": "",
          "type": "address"
        }
      ],
      "stateMutability": "view",
      "type": "function"
    },
    {
      "inputs": [
        {
          "internalType": "bytes32",
          "name": "role",
          "type": "bytes32"
        }
      ],
      "name": "getRoleAdmin",
      "outputs": [
        {
          "internalType": "bytes32",
          "name": "",
          "type": "bytes32"
        }
      ],
      "stateMutability": "view",
      "type": "function"
    },
    {
      "inputs": [
        {
          "internalType": "bytes32",
          "name": "role",
          "type": "bytes32"
        },
        {
          "internalType": "uint256",
          "name": "index",
          "type": "uint256"
        }
      ],
      "name": "getRoleMember",
      "outputs": [
        {
          "internalType": "address",
          "name": "",
          "type": "address"
        }
      ],
      "stateMutability": "view",
      "type": "function"
    },
    {
      "inputs": [
        {
          "internalType": "bytes32",
          "name": "role",
          "type": "bytes32"
        }
      ],
      "name": "getRoleMemberCount",
      "outputs": [
        {
          "internalType": "uint256",
          "name": "",
          "type": "uint256"
        }
      ],
      "stateMutability": "view",
      "type": "function"
    },
    {
      "inputs": [
        {
          "internalType": "bytes32",
          "name": "role",
          "type": "bytes32"
        },
        {
          "internalType": "address",
          "name": "account",
          "type": "address"
        }
      ],
      "name": "getRoleMemberIndex",
      "outputs": [
        {
          "internalType": "uint256",
          "name": "",
          "type": "uint256"
        }
      ],
      "stateMutability": "view",
      "type": "function"
    },
    {
      "inputs": [
        {
          "internalType": "bytes32",
          "name": "role",
          "type": "bytes32"
        },
        {
          "internalType": "address",
          "name": "account",
          "type": "address"
        }
      ],
      "name": "grantRole",
      "outputs": [],
      "stateMutability": "nonpayable",
      "type": "function"
    },
    {
      "inputs": [
        {
          "internalType": "bytes32",
          "name": "role",
          "type": "bytes32"
        },
        {
          "internalType": "address",
          "name": "account",
          "type": "address"
        }
      ],
      "name": "hasRole",
      "outputs": [
        {
          "internalType": "bool",
          "name": "",
          "type": "bool"
        }
      ],
      "stateMutability": "view",
      "type": "function"
    },
    {
      "inputs": [
        {
          "internalType": "address",
          "name": "",
          "type": "address"
        }
      ],
      "name": "isValidForwarder",
      "outputs": [
        {
          "internalType": "bool",
          "name": "",
          "type": "bool"
        }
      ],
      "stateMutability": "view",
      "type": "function"
    },
    {
      "inputs": [],
      "name": "paused",
      "outputs": [
        {
          "internalType": "bool",
          "name": "",
          "type": "bool"
        }
      ],
      "stateMutability": "view",
      "type": "function"
    },
    {
      "inputs": [
        {
          "internalType": "bytes32",
          "name": "role",
          "type": "bytes32"
        },
        {
          "internalType": "address",
          "name": "account",
          "type": "address"
        }
      ],
      "name": "renounceRole",
      "outputs": [],
      "stateMutability": "nonpayable",
      "type": "function"
    },
    {
      "inputs": [
        {
          "internalType": "bytes32",
          "name": "role",
          "type": "bytes32"
        },
        {
          "internalType": "address",
          "name": "account",
          "type": "address"
        }
      ],
      "name": "revokeRole",
      "outputs": [],
      "stateMutability": "nonpayable",
      "type": "function"
    },
    {
      "inputs": [
        {
          "internalType": "uint72",
          "name": "destNonce",
          "type": "uint72"
        },
        {
          "internalType": "bytes32",
          "name": "dataHash",
          "type": "bytes32"
        },
        {
          "internalType": "address",
          "name": "relayer",
          "type": "address"
        }
      ],
      "name": "_hasVotedOnProposal",
      "outputs": [
        {
          "internalType": "bool",
          "name": "",
          "type": "bool"
        }
      ],
      "stateMutability": "view",
      "type": "function"
    },
    {
      "inputs": [
        {
          "internalType": "address",
          "name": "relayer",
          "type": "address"
        }
      ],
      "name": "isRelayer",
      "outputs": [
        {
          "internalType": "bool",
          "name": "",
          "type": "bool"
        }
      ],
      "stateMutability": "view",
      "type": "function"
    },
    {
      "inputs": [
        {
          "internalType": "address",
          "name": "newAdmin",
          "type": "address"
        }
      ],
      "name": "renounceAdmin",
      "outputs": [],
      "stateMutability": "nonpayable",
      "type": "function"
    },
    {
      "inputs": [],
      "name": "adminPauseTransfers",
      "outputs": [],
      "stateMutability": "nonpayable",
      "type": "function"
    },
    {
      "inputs": [],
      "name": "adminUnpauseTransfers",
      "outputs": [],
      "stateMutability": "nonpayable",
      "type": "function"
    },
    {
      "inputs": [
        {
          "internalType": "uint256",
          "name": "newThreshold",
          "type": "uint256"
        }
      ],
      "name": "adminChangeRelayerThreshold",
      "outputs": [],
      "stateMutability": "nonpayable",
      "type": "function"
    },
    {
      "inputs": [
        {
          "internalType": "address",
          "name": "relayerAddress",
          "type": "address"
        }
      ],
      "name": "adminAddRelayer",
      "outputs": [],
      "stateMutability": "nonpayable",
      "type": "function"
    },
    {
      "inputs": [
        {
          "internalType": "address",
          "name": "relayerAddress",
          "type": "address"
        }
      ],
      "name": "adminRemoveRelayer",
      "outputs": [],
      "stateMutability": "nonpayable",
      "type": "function"
    },
    {
      "inputs": [
        {
          "internalType": "address",
          "name": "handlerAddress",
          "type": "address"
        },
        {
          "internalType": "bytes32",
          "name": "resourceID",
          "type": "bytes32"
        },
        {
          "internalType": "address",
          "name": "tokenAddress",
          "type": "address"
        }
      ],
      "name": "adminSetResource",
      "outputs": [],
      "stateMutability": "nonpayable",
      "type": "function"
    },
    {
      "inputs": [
        {
          "internalType": "address",
          "name": "handlerAddress",
          "type": "address"
        },
        {
          "internalType": "bytes32",
          "name": "resourceID",
          "type": "bytes32"
        },
        {
          "internalType": "address",
          "name": "contractAddress",
          "type": "address"
        },
        {
          "internalType": "bytes4",
          "name": "depositFunctionSig",
          "type": "bytes4"
        },
        {
          "internalType": "uint256",
          "name": "depositFunctionDepositerOffset",
          "type": "uint256"
        },
        {
          "internalType": "bytes4",
          "name": "executeFunctionSig",
          "type": "bytes4"
        }
      ],
      "name": "adminSetGenericResource",
      "outputs": [],
      "stateMutability": "nonpayable",
      "type": "function"
    },
    {
      "inputs": [
        {
          "internalType": "address",
          "name": "handlerAddress",
          "type": "address"
        },
        {
          "internalType": "address",
          "name": "tokenAddress",
          "type": "address"
        }
      ],
      "name": "adminSetBurnable",
      "outputs": [],
      "stateMutability": "nonpayable",
      "type": "function"
    },
    {
      "inputs": [
        {
          "internalType": "uint8",
          "name": "domainID",
          "type": "uint8"
        },
        {
          "internalType": "uint64",
          "name": "nonce",
          "type": "uint64"
        }
      ],
      "name": "adminSetDepositNonce",
      "outputs": [],
      "stateMutability": "nonpayable",
      "type": "function"
    },
    {
      "inputs": [
        {
          "internalType": "address",
          "name": "forwarder",
          "type": "address"
        },
        {
          "internalType": "bool",
          "name": "valid",
          "type": "bool"
        }
      ],
      "name": "adminSetForwarder",
      "outputs": [],
      "stateMutability": "nonpayable",
      "type": "function"
    },
    {
      "inputs": [
        {
          "internalType": "uint8",
          "name": "originDomainID",
          "type": "uint8"
        },
        {
          "internalType": "uint64",
          "name": "depositNonce",
          "type": "uint64"
        },
        {
          "internalType": "bytes32",
          "name": "dataHash",
          "type": "bytes32"
        }
      ],
      "name": "getProposal",
      "outputs": [
        {
          "components": [
            {
              "internalType": "enum Bridge.ProposalStatus",
              "name": "_status",
              "type": "uint8"
            },
            {
              "internalType": "uint200",
              "name": "_yesVotes",
              "type": "uint200"
            },
            {
              "internalType": "uint8",
              "name": "_yesVotesTotal",
              "type": "uint8"
            },
            {
              "internalType": "uint40",
              "name": "_proposedBlock",
              "type": "uint40"
            }
          ],
          "internalType": "struct Bridge.Proposal",
          "name": "",
          "type": "tuple"
        }
      ],
      "stateMutability": "view",
      "type": "function"
    },
    {
      "inputs": [],
      "name": "_totalRelayers",
      "outputs": [
        {
          "internalType": "uint256",
          "name": "",
          "type": "uint256"
        }
      ],
      "stateMutability": "view",
      "type": "function"
    },
    {
      "inputs": [
        {
          "internalType": "uint256",
          "name": "newFee",
          "type": "uint256"
        }
      ],
      "name": "adminChangeFee",
      "outputs": [],
      "stateMutability": "nonpayable",
      "type": "function"
    },
    {
      "inputs": [
        {
          "internalType": "address",
          "name": "handlerAddress",
          "type": "address"
        },
        {
          "internalType": "bytes",
          "name": "data",
          "type": "bytes"
        }
      ],
      "name": "adminWithdraw",
      "outputs": [],
      "stateMutability": "nonpayable",
      "type": "function"
    },
    {
      "inputs": [
        {
          "internalType": "uint8",
          "name": "destinationDomainID",
          "type": "uint8"
        },
        {
          "internalType": "bytes32",
          "name": "resourceID",
          "type": "bytes32"
        },
        {
          "internalType": "bytes",
          "name": "data",
          "type": "bytes"
        }
      ],
      "name": "deposit",
      "outputs": [],
      "stateMutability": "payable",
      "type": "function"
    },
    {
      "inputs": [
        {
          "internalType": "uint8",
          "name": "domainID",
          "type": "uint8"
        },
        {
          "internalType": "uint64",
          "name": "depositNonce",
          "type": "uint64"
        },
        {
          "internalType": "bytes32",
          "name": "resourceID",
          "type": "bytes32"
        },
        {
          "internalType": "bytes",
          "name": "data",
          "type": "bytes"
        }
      ],
      "name": "voteProposal",
      "outputs": [],
      "stateMutability": "nonpayable",
      "type": "function"
    },
    {
      "inputs": [
        {
          "internalType": "uint8",
          "name": "domainID",
          "type": "uint8"
        },
        {
          "internalType": "uint64",
          "name": "depositNonce",
          "type": "uint64"
        },
        {
          "internalType": "bytes32",
          "name": "dataHash",
          "type": "bytes32"
        }
      ],
      "name": "cancelProposal",
      "outputs": [],
      "stateMutability": "nonpayable",
      "type": "function"
    },
    {
      "inputs": [
        {
          "internalType": "uint8",
          "name": "domainID",
          "type": "uint8"
        },
        {
          "internalType": "uint64",
          "name": "depositNonce",
          "type": "uint64"
        },
        {
          "internalType": "bytes",
          "name": "data",
          "type": "bytes"
        },
        {
          "internalType": "bytes32",
          "name": "resourceID",
          "type": "bytes32"
        },
        {
          "internalType": "bool",
          "name": "revertOnFail",
          "type": "bool"
        }
      ],
      "name": "executeProposal",
      "outputs": [],
      "stateMutability": "nonpayable",
      "type": "function"
    },
    {
      "inputs": [
        {
          "internalType": "address payable[]",
          "name": "addrs",
          "type": "address[]"
        },
        {
          "internalType": "uint256[]",
          "name": "amounts",
          "type": "uint256[]"
        }
      ],
      "name": "transferFunds",
      "outputs": [],
      "stateMutability": "nonpayable",
      "type": "function"
    }
  ],
  "bytecode": "0x60806040523480156200001157600080fd5b5060405162003622380380620036228339810160408190526200003491620004db565b6000805460ff199081169091556002805490911660ff871617905562000066836200018a602090811b62001ef917901c565b600260016101000a81548160ff021916908360ff1602179055506200009682620001e760201b62001f501760201c565b6002806101000a8154816001600160801b0302191690836001600160801b03160217905550620000d1816200023e60201b62001fa51760201c565b6002805464ffffffffff92909216600160901b0264ffffffffff60901b199092169190911790556200010e60006200010862000297565b620002da565b60005b84518110156200017e57620001697fe2b7fb3b832174769106daebcfd6d1970523240dda11281102db9363b83b0dc4868381518110620001555762000155620005e4565b6020026020010151620002ea60201b60201c565b806200017581620005fa565b91505062000111565b50505050505062000624565b60006101008210620001e35760405162461bcd60e51b815260206004820152601c60248201527f76616c756520646f6573206e6f742066697420696e203820626974730000000060448201526064015b60405180910390fd5b5090565b6000600160801b8210620001e35760405162461bcd60e51b815260206004820152601e60248201527f76616c756520646f6573206e6f742066697420696e20313238206269747300006044820152606401620001da565b6000650100000000008210620001e35760405162461bcd60e51b815260206004820152601d60248201527f76616c756520646f6573206e6f742066697420696e20343020626974730000006044820152606401620001da565b60003360143610801590620002c457506001600160a01b03811660009081526005602052604090205460ff165b15620002d5575060131936013560601c5b919050565b620002e6828262000377565b5050565b60008281526001602052604090206002015462000311906200030b62000297565b620003f2565b620002da5760405162461bcd60e51b815260206004820152602f60248201527f416363657373436f6e74726f6c3a2073656e646572206d75737420626520616e60448201526e0818591b5a5b881d1bc819dc985b9d608a1b6064820152608401620001da565b60008281526001602090815260409091206200039e91839062001ffc62000421821b17901c565b15620002e657620003ae62000297565b6001600160a01b0316816001600160a01b0316837f2f8788117e7eff1d82e926ec794901d17c78024a50270940304540a733656f0d60405160405180910390a45050565b60008281526001602090815260408220620004189184906200201162000438821b17901c565b90505b92915050565b600062000418836001600160a01b0384166200045b565b6001600160a01b0381166000908152600183016020526040812054151562000418565b6000818152600183016020526040812054620004a4575081546001818101845560008481526020808220909301849055845484825282860190935260409020919091556200041b565b5060006200041b565b634e487b7160e01b600052604160045260246000fd5b80516001600160a01b0381168114620002d557600080fd5b600080600080600060a08688031215620004f457600080fd5b855160ff811681146200050657600080fd5b602087810151919650906001600160401b03808211156200052657600080fd5b818901915089601f8301126200053b57600080fd5b815181811115620005505762000550620004ad565b8060051b604051601f19603f83011681018181108582111715620005785762000578620004ad565b60405291825284820192508381018501918c8311156200059757600080fd5b938501935b82851015620005c057620005b085620004c3565b845293850193928501926200059c565b60408c015160608d01516080909d01519b9e919d509b9a9950975050505050505050565b634e487b7160e01b600052603260045260246000fd5b60006000198214156200061d57634e487b7160e01b600052601160045260246000fd5b5060010190565b612fee80620006346000396000f3fe6080604052600436106102465760003560e01c806391c404ac11610139578063c5b37c22116100b6578063d15ef64e1161007a578063d15ef64e1461074f578063d547741f1461076f578063d7a9cd791461078f578063edc20c3c146107ae578063f8c39e44146107ce578063ffaac0eb146107fe57600080fd5b8063c5b37c2214610676578063c5ec8970146106b4578063ca15c873146106ef578063cb10f2151461070f578063cdb0f73a1461072f57600080fd5b80639debb3bd116100fd5780639debb3bd146105df578063a217fddf146105f4578063a9cf69fa14610609578063bd2a182014610636578063c0331b3e1461065657600080fd5b806391c404ac1461053157806391d1485414610551578063926d7d7f146105715780639d82dd63146105935780639dd694f4146105b357600080fd5b8063541d5548116101c7578063802aabe81161018b578063802aabe81461047957806380ae1c281461048e57806384db809f146104a35780638c0c2631146104f15780639010d07c1461051157600080fd5b8063541d5548146103d15780635a1ad87c146104015780635c975abb146104215780635e1fab0f146104395780637febe63f1461045957600080fd5b806336568abe1161020e57806336568abe146103035780634603ae38146103235780634b0b919d146103435780634e056005146103915780634e0df3f6146103b157600080fd5b806305e2ca171461024b57806317f03ce514610260578063206a98fd14610280578063248a9ca3146102a05780632f2ff15d146102e3575b600080fd5b61025e6102593660046126c3565b610813565b005b34801561026c57600080fd5b5061025e61027b366004612733565b610a0e565b34801561028c57600080fd5b5061025e61029b36600461277f565b610ca1565b3480156102ac57600080fd5b506102d06102bb3660046127fb565b60009081526001602052604090206002015490565b6040519081526020015b60405180910390f35b3480156102ef57600080fd5b5061025e6102fe366004612829565b610f29565b34801561030f57600080fd5b5061025e61031e366004612829565b610fb9565b34801561032f57600080fd5b5061025e61033e36600461289d565b611043565b34801561034f57600080fd5b5061037961035e3660046128fc565b6003602052600090815260409020546001600160401b031681565b6040516001600160401b0390911681526020016102da565b34801561039d57600080fd5b5061025e6103ac3660046127fb565b6110e7565b3480156103bd57600080fd5b506102d06103cc366004612829565b61114a565b3480156103dd57600080fd5b506103f16103ec366004612917565b611176565b60405190151581526020016102da565b34801561040d57600080fd5b5061025e61041c36600461294c565b611190565b34801561042d57600080fd5b5060005460ff166103f1565b34801561044557600080fd5b5061025e610454366004612917565b611246565b34801561046557600080fd5b506103f16104743660046129aa565b6112d2565b34801561048557600080fd5b506102d0611378565b34801561049a57600080fd5b5061025e611396565b3480156104af57600080fd5b506104d96104be3660046127fb565b6004602052600090815260409020546001600160a01b031681565b6040516001600160a01b0390911681526020016102da565b3480156104fd57600080fd5b5061025e61050c3660046129fa565b6113b0565b34801561051d57600080fd5b506104d961052c366004612a28565b61141c565b34801561053d57600080fd5b5061025e61054c3660046127fb565b61143b565b34801561055d57600080fd5b506103f161056c366004612829565b6114d5565b34801561057d57600080fd5b506102d0600080516020612f9983398151915281565b34801561059f57600080fd5b5061025e6105ae366004612917565b6114ed565b3480156105bf57600080fd5b506002546105cd9060ff1681565b60405160ff90911681526020016102da565b3480156105eb57600080fd5b506102d060c881565b34801561060057600080fd5b506102d0600081565b34801561061557600080fd5b50610629610624366004612733565b6115a2565b6040516102da9190612a82565b34801561064257600080fd5b5061025e610651366004612b38565b611670565b34801561066257600080fd5b5061025e610671366004612bca565b6116a6565b34801561068257600080fd5b5060025461069c906201000090046001600160801b031681565b6040516001600160801b0390911681526020016102da565b3480156106c057600080fd5b506002546106d990600160901b900464ffffffffff1681565b60405164ffffffffff90911681526020016102da565b3480156106fb57600080fd5b506102d061070a3660046127fb565b611bc1565b34801561071b57600080fd5b5061025e61072a366004612c38565b611bd8565b34801561073b57600080fd5b5061025e61074a366004612917565b611c6c565b34801561075b57600080fd5b5061025e61076a366004612c58565b611d72565b34801561077b57600080fd5b5061025e61078a366004612829565b611da5565b34801561079b57600080fd5b506002546105cd90610100900460ff1681565b3480156107ba57600080fd5b5061025e6107c9366004612c8d565b611e28565b3480156107da57600080fd5b506103f16107e9366004612917565b60056020526000908152604090205460ff1681565b34801561080a57600080fd5b5061025e611ee1565b61081b612033565b6002546201000090046001600160801b031634146108795760405162461bcd60e51b8152602060048201526016602482015275125b98dbdc9c9958dd08199959481cdd5c1c1b1a595960521b60448201526064015b60405180910390fd5b6000838152600460205260409020546001600160a01b0316806108de5760405162461bcd60e51b815260206004820181905260248201527f7265736f757263654944206e6f74206d617070656420746f2068616e646c65726044820152606401610870565b60ff8516600090815260036020526040812080548290610906906001600160401b0316612ccd565b91906101000a8154816001600160401b0302191690836001600160401b03160217905590506000610935612079565b60405163b07e54bb60e01b815290915083906000906001600160a01b0383169063b07e54bb9061096f908b9087908c908c90600401612d1d565b6000604051808303816000875af115801561098e573d6000803e3d6000fd5b505050506040513d6000823e601f3d908101601f191682016040526109b69190810190612d82565b9050826001600160a01b03167f17bc3181e17a9620a479c24e6c606e474ba84fc036877b768926872e8cd0e11f8a8a878b8b876040516109fb96959493929190612e1b565b60405180910390a2505050505050505050565b610a166120ba565b60ff838116600884901b68ffffffffffffffff0016176000818152600660209081526040808320868452909152808220815160808101909252805493949293919290918391166004811115610a6d57610a6d612a4a565b6004811115610a7e57610a7e612a4a565b8152905461010081046001600160c81b03166020830152600160d01b810460ff166040830152600160d81b900464ffffffffff1660609091015280519091506001816004811115610ad157610ad1612a4a565b1480610aee57506002816004811115610aec57610aec612a4a565b145b610b3a5760405162461bcd60e51b815260206004820152601c60248201527f50726f706f73616c2063616e6e6f742062652063616e63656c6c6564000000006044820152606401610870565b600254606083015164ffffffffff600160901b909204821691610b5f9143911661213e565b64ffffffffff1611610bb35760405162461bcd60e51b815260206004820181905260248201527f50726f706f73616c206e6f7420617420657870697279207468726573686f6c646044820152606401610870565b600480835268ffffffffffffffffff841660009081526006602090815260408083208884529091529020835181548593839160ff1916906001908490811115610bfe57610bfe612a4a565b02179055506020820151815460408085015160609095015164ffffffffff16600160d81b026001600160d81b0360ff909616600160d01b0260ff60d01b196001600160c81b039095166101000294909416610100600160d81b031990931692909217929092179390931692909217905551600080516020612f7983398151915290610c9190889088906004908990612e6c565b60405180910390a1505050505050565b610ca9612180565b610cb1612033565b60008281526004602090815260408083205490516001600160a01b039091169268ffffffffffffffff0060088a901b1660ff8b1617929091610cf99185918a918a9101612ea1565b60408051601f19818403018152918152815160209283012068ffffffffffffffffff851660009081526006845282812082825290935291209091506002815460ff166004811115610d4c57610d4c612a4a565b14610d995760405162461bcd60e51b815260206004820181905260248201527f50726f706f73616c206d757374206861766520506173736564207374617475736044820152606401610870565b805460ff19166003178155838515610e125760405163712467f960e11b81526001600160a01b0382169063e248cff290610ddb908a908d908d90600401612ecd565b600060405180830381600087803b158015610df557600080fd5b505af1158015610e09573d6000803e3d6000fd5b50505050610eef565b60405163712467f960e11b81526001600160a01b0382169063e248cff290610e42908a908d908d90600401612ecd565b600060405180830381600087803b158015610e5c57600080fd5b505af1925050508015610e6d575060015b610eef573d808015610e9b576040519150601f19603f3d011682016040523d82523d6000602084013e610ea0565b606091505b50825460ff191660021783556040517fbd37c1f0d53bb2f33fe4c2104de272fcdeb4d2fef3acdbf1e4ddc3d6833ca37690610edc908390612ee7565b60405180910390a1505050505050610f21565b600080516020612f798339815191528b8b600386604051610f139493929190612e6c565b60405180910390a150505050505b505050505050565b600082815260016020526040902060020154610f479061056c612079565b610fab5760405162461bcd60e51b815260206004820152602f60248201527f416363657373436f6e74726f6c3a2073656e646572206d75737420626520616e60448201526e0818591b5a5b881d1bc819dc985b9d608a1b6064820152608401610870565b610fb582826121e6565b5050565b610fc1612079565b6001600160a01b0316816001600160a01b0316146110395760405162461bcd60e51b815260206004820152602f60248201527f416363657373436f6e74726f6c3a2063616e206f6e6c792072656e6f756e636560448201526e103937b632b9903337b91039b2b63360891b6064820152608401610870565b610fb5828261224f565b61104b6122b8565b60005b838110156110e05784848281811061106857611068612efa565b905060200201602081019061107d9190612917565b6001600160a01b03166108fc84848481811061109b5761109b612efa565b905060200201359081150290604051600060405180830381858888f193505050501580156110cd573d6000803e3d6000fd5b50806110d881612f10565b91505061104e565b5050505050565b6110ef6122b8565b6110f881611ef9565b6002805460ff929092166101000261ff00199092169190911790556040518181527fa20d6b84cd798a24038be305eff8a45ca82ef54a2aa2082005d8e14c0a4746c8906020015b60405180910390a150565b60008281526001602081815260408084206001600160a01b038616855290920190529020545b92915050565b6000611170600080516020612f99833981519152836114d5565b6111986122b8565b60008581526004602081905260409182902080546001600160a01b0319166001600160a01b038a8116918217909255925163de319d9960e01b8152918201889052861660248201526001600160e01b03198086166044830152606482018590528316608482015287919063de319d999060a401600060405180830381600087803b15801561122557600080fd5b505af1158015611239573d6000803e3d6000fd5b5050505050505050505050565b61124e6122b8565b6000611258612079565b9050816001600160a01b0316816001600160a01b031614156112bc5760405162461bcd60e51b815260206004820152601760248201527f43616e6e6f742072656e6f756e6365206f6e6573656c660000000000000000006044820152606401610870565b6112c7600083610f29565b610fb5600082610fb9565b68ffffffffffffffffff831660009081526006602090815260408083208584529091528082208151608081019092528054611370929190829060ff16600481111561131f5761131f612a4a565b600481111561133057611330612a4a565b8152905461010081046001600160c81b03166020830152600160d01b810460ff166040830152600160d81b900464ffffffffff1660609091015283612311565b949350505050565b6000611391600080516020612f99833981519152611bc1565b905090565b61139e6122b8565b6113ae6113a9612079565b612334565b565b6113b86122b8565b6040516307b7ed9960e01b81526001600160a01b0382811660048301528391908216906307b7ed99906024015b600060405180830381600087803b1580156113ff57600080fd5b505af1158015611413573d6000803e3d6000fd5b50505050505050565b60008281526001602052604081206114349083612382565b9392505050565b6114436122b8565b6002546201000090046001600160801b03168114156114a45760405162461bcd60e51b815260206004820152601f60248201527f43757272656e742066656520697320657175616c20746f206e657720666565006044820152606401610870565b6114ad81611f50565b6002806101000a8154816001600160801b0302191690836001600160801b0316021790555050565b60008281526001602052604081206114349083612011565b611505600080516020612f99833981519152826114d5565b6115515760405162461bcd60e51b815260206004820152601f60248201527f6164647220646f65736e277420686176652072656c6179657220726f6c6521006044820152606401610870565b611569600080516020612f9983398151915282611da5565b6040516001600160a01b03821681527f10e1f7ce9fd7d1b90a66d13a2ab3cb8dd7f29f3f8d520b143b063ccfbab6906b9060200161113f565b60408051608081018252600080825260208201819052918101829052606081019190915260ff848116600885901b68ffffffffffffffff0016176000818152600660209081526040808320878452909152908190208151608081019092528054929391929091839116600481111561161c5761161c612a4a565b600481111561162d5761162d612a4a565b8152905461010081046001600160c81b03166020830152600160d01b810460ff166040830152600160d81b900464ffffffffff1660609091015295945050505050565b6116786122b8565b60405163025a3c9960e21b815282906001600160a01b03821690630968f264906113e5908590600401612ee7565b6116ae612180565b6116b6612033565b60008381526004602090815260408083205490516001600160a01b039091169268ffffffffffffffff00600889901b1660ff8a16179290916116fe9185918891889101612ea1565b60408051601f19818403018152828252805160209182012068ffffffffffffffffff861660009081526006835283812082825290925282822060808501909352825490945090929190829060ff16600481111561175d5761175d612a4a565b600481111561176e5761176e612a4a565b8152905461010081046001600160c81b0316602080840191909152600160d01b820460ff16604080850191909152600160d81b90920464ffffffffff1660609093019290925260008a815260049092529020549091506001600160a01b03166118195760405162461bcd60e51b815260206004820152601960248201527f6e6f2068616e646c657220666f72207265736f757263654944000000000000006044820152606401610870565b60028151600481111561182e5761182e612a4a565b141561184c57611843898988888b6001610ca1565b505050506110e0565b6000611856612079565b905060018260000151600481111561187057611870612a4a565b11156118ca5760405162461bcd60e51b815260206004820152602360248201527f70726f706f73616c20616c72656164792065786563757465642f63616e63656c6044820152621b195960ea1b6064820152608401610870565b6118d48282612311565b156119195760405162461bcd60e51b81526020600482015260156024820152741c995b185e595c88185b1c9958591e481d9bdd1959605a1b6044820152606401610870565b60008251600481111561192e5761192e612a4a565b141561198e576040805160808101825260018082526000602083018190528284015264ffffffffff431660608301529151909350600080516020612f7983398151915291611981918d918d918890612e6c565b60405180910390a16119f0565b600254606083015164ffffffffff600160901b9092048216916119b39143911661213e565b64ffffffffff1611156119f0576004808352604051600080516020612f79833981519152916119e7918d918d918890612e6c565b60405180910390a15b600482516004811115611a0557611a05612a4a565b14611ad557611a2a611a168261238e565b83602001516001600160c81b0316176123bc565b6001600160c81b0316602083015260408201805190611a4882612f2b565b60ff1690525081516040517f25f8daaa4635a7729927ba3f5b3d59cc3320aca7c32c9db4e7ca7b957434364091611a84918d918d918890612e6c565b60405180910390a1600254604083015160ff6101009092048216911610611ad5576002808352604051600080516020612f7983398151915291611acc918d918d918890612e6c565b60405180910390a15b68ffffffffffffffffff8416600090815260066020908152604080832086845290915290208251815484929190829060ff19166001836004811115611b1c57611b1c612a4a565b021790555060208201518154604084015160609094015164ffffffffff16600160d81b026001600160d81b0360ff909516600160d01b0260ff60d01b196001600160c81b039094166101000293909316610100600160d81b0319909216919091179190911792909216919091179055600282516004811115611ba057611ba0612a4a565b1415611bb557611bb58a8a89898c6000610ca1565b50505050505050505050565b600081815260016020526040812061117090612411565b611be06122b8565b60008281526004602081905260409182902080546001600160a01b0319166001600160a01b038781169182179092559251635c7d1b9b60e11b81529182018590528316602482015284919063b8fa373690604401600060405180830381600087803b158015611c4e57600080fd5b505af1158015611c62573d6000803e3d6000fd5b5050505050505050565b611c84600080516020612f99833981519152826114d5565b15611cd15760405162461bcd60e51b815260206004820152601e60248201527f6164647220616c7265616479206861732072656c6179657220726f6c652100006044820152606401610870565b60c8611cdb611378565b10611d215760405162461bcd60e51b81526020600482015260166024820152751c995b185e595c9cc81b1a5b5a5d081c995858da195960521b6044820152606401610870565b611d39600080516020612f9983398151915282610f29565b6040516001600160a01b03821681527f03580ee9f53a62b7cb409a2cb56f9be87747dd15017afc5cef6eef321e4fb2c59060200161113f565b611d7a6122b8565b6001600160a01b03919091166000908152600560205260409020805460ff1916911515919091179055565b600082815260016020526040902060020154611dc39061056c612079565b6110395760405162461bcd60e51b815260206004820152603060248201527f416363657373436f6e74726f6c3a2073656e646572206d75737420626520616e60448201526f2061646d696e20746f207265766f6b6560801b6064820152608401610870565b611e306122b8565b60ff82166000908152600360205260409020546001600160401b0390811690821611611ead5760405162461bcd60e51b815260206004820152602660248201527f446f6573206e6f7420616c6c6f772064656372656d656e7473206f6620746865604482015265206e6f6e636560d01b6064820152608401610870565b60ff919091166000908152600360205260409020805467ffffffffffffffff19166001600160401b03909216919091179055565b611ee96122b8565b6113ae611ef4612079565b61241b565b60006101008210611f4c5760405162461bcd60e51b815260206004820152601c60248201527f76616c756520646f6573206e6f742066697420696e20382062697473000000006044820152606401610870565b5090565b6000600160801b8210611f4c5760405162461bcd60e51b815260206004820152601e60248201527f76616c756520646f6573206e6f742066697420696e20313238206269747300006044820152606401610870565b6000650100000000008210611f4c5760405162461bcd60e51b815260206004820152601d60248201527f76616c756520646f6573206e6f742066697420696e20343020626974730000006044820152606401610870565b6000611434836001600160a01b038416612466565b6001600160a01b03811660009081526001830160205260408120541515611434565b60005460ff16156113ae5760405162461bcd60e51b815260206004820152601060248201526f14185d5cd8589b194e881c185d5cd95960821b6044820152606401610870565b600033601436108015906120a557506001600160a01b03811660009081526005602052604090205460ff165b156120b5575060131936013560601c5b919050565b60006120c4612079565b90506120d16000826114d5565b806120ef57506120ef600080516020612f99833981519152826114d5565b61213b5760405162461bcd60e51b815260206004820152601e60248201527f73656e646572206973206e6f742072656c61796572206f722061646d696e00006044820152606401610870565b50565b600061143483836040518060400160405280601e81526020017f536166654d6174683a207375627472616374696f6e206f766572666c6f7700008152506124b5565b61219a600080516020612f9983398151915261056c612079565b6113ae5760405162461bcd60e51b815260206004820181905260248201527f73656e64657220646f65736e277420686176652072656c6179657220726f6c656044820152606401610870565b60008281526001602052604090206121fe9082611ffc565b15610fb55761220b612079565b6001600160a01b0316816001600160a01b0316837f2f8788117e7eff1d82e926ec794901d17c78024a50270940304540a733656f0d60405160405180910390a45050565b600082815260016020526040902061226790826124ef565b15610fb557612274612079565b6001600160a01b0316816001600160a01b0316837ff6391f5c32d9c69d2a47ea670b442974b53935d1edc7fd64eb21e047a839171b60405160405180910390a45050565b6122c5600061056c612079565b6113ae5760405162461bcd60e51b815260206004820152601e60248201527f73656e64657220646f65736e277420686176652061646d696e20726f6c6500006044820152606401610870565b60008083602001516001600160c81b031661232b8461238e565b16119392505050565b61233c612033565b6000805460ff191660011790556040516001600160a01b03821681527f62e78cea01bee320cd4e420270b5ea74000d11b0c9f74754ebdbfc544b05a2589060200161113f565b60006114348383612504565b60006123b26123ab600080516020612f998339815191528461114a565b600161213e565b6001901b92915050565b6000600160c81b8210611f4c5760405162461bcd60e51b815260206004820152601e60248201527f76616c756520646f6573206e6f742066697420696e20323030206269747300006044820152606401610870565b6000611170825490565b61242361252e565b6000805460ff191690556040516001600160a01b03821681527f5db9ee0a495bf2e6ff9c91a7834c1ba4fdd244a5e8aa4e537bd38aeae4b073aa9060200161113f565b60008181526001830160205260408120546124ad57508154600181810184556000848152602080822090930184905584548482528286019093526040902091909155611170565b506000611170565b600081848411156124d95760405162461bcd60e51b81526004016108709190612ee7565b5060006124e68486612f4b565b95945050505050565b6000611434836001600160a01b038416612577565b600082600001828154811061251b5761251b612efa565b9060005260206000200154905092915050565b60005460ff166113ae5760405162461bcd60e51b815260206004820152601460248201527314185d5cd8589b194e881b9bdd081c185d5cd95960621b6044820152606401610870565b6000818152600183016020526040812054801561266057600061259b600183612f4b565b85549091506000906125af90600190612f4b565b90508181146126145760008660000182815481106125cf576125cf612efa565b90600052602060002001549050808760000184815481106125f2576125f2612efa565b6000918252602080832090910192909255918252600188019052604090208390555b855486908061262557612625612f62565b600190038181906000526020600020016000905590558560010160008681526020019081526020016000206000905560019350505050611170565b6000915050611170565b803560ff811681146120b557600080fd5b60008083601f84011261268d57600080fd5b5081356001600160401b038111156126a457600080fd5b6020830191508360208285010111156126bc57600080fd5b9250929050565b600080600080606085870312156126d957600080fd5b6126e28561266a565b93506020850135925060408501356001600160401b0381111561270457600080fd5b6127108782880161267b565b95989497509550505050565b80356001600160401b03811681146120b557600080fd5b60008060006060848603121561274857600080fd5b6127518461266a565b925061275f6020850161271c565b9150604084013590509250925092565b803580151581146120b557600080fd5b60008060008060008060a0878903121561279857600080fd5b6127a18761266a565b95506127af6020880161271c565b945060408701356001600160401b038111156127ca57600080fd5b6127d689828a0161267b565b909550935050606087013591506127ef6080880161276f565b90509295509295509295565b60006020828403121561280d57600080fd5b5035919050565b6001600160a01b038116811461213b57600080fd5b6000806040838503121561283c57600080fd5b82359150602083013561284e81612814565b809150509250929050565b60008083601f84011261286b57600080fd5b5081356001600160401b0381111561288257600080fd5b6020830191508360208260051b85010111156126bc57600080fd5b600080600080604085870312156128b357600080fd5b84356001600160401b03808211156128ca57600080fd5b6128d688838901612859565b909650945060208701359150808211156128ef57600080fd5b5061271087828801612859565b60006020828403121561290e57600080fd5b6114348261266a565b60006020828403121561292957600080fd5b813561143481612814565b80356001600160e01b0319811681146120b557600080fd5b60008060008060008060c0878903121561296557600080fd5b863561297081612814565b955060208701359450604087013561298781612814565b935061299560608801612934565b9250608087013591506127ef60a08801612934565b6000806000606084860312156129bf57600080fd5b833568ffffffffffffffffff811681146129d857600080fd5b92506020840135915060408401356129ef81612814565b809150509250925092565b60008060408385031215612a0d57600080fd5b8235612a1881612814565b9150602083013561284e81612814565b60008060408385031215612a3b57600080fd5b50508035926020909101359150565b634e487b7160e01b600052602160045260246000fd5b60058110612a7e57634e487b7160e01b600052602160045260246000fd5b9052565b6000608082019050612a95828451612a60565b60018060c81b03602084015116602083015260ff604084015116604083015264ffffffffff606084015116606083015292915050565b634e487b7160e01b600052604160045260246000fd5b604051601f8201601f191681016001600160401b0381118282101715612b0957612b09612acb565b604052919050565b60006001600160401b03821115612b2a57612b2a612acb565b50601f01601f191660200190565b60008060408385031215612b4b57600080fd5b8235612b5681612814565b915060208301356001600160401b03811115612b7157600080fd5b8301601f81018513612b8257600080fd5b8035612b95612b9082612b11565b612ae1565b818152866020838501011115612baa57600080fd5b816020840160208301376000602083830101528093505050509250929050565b600080600080600060808688031215612be257600080fd5b612beb8661266a565b9450612bf96020870161271c565b93506040860135925060608601356001600160401b03811115612c1b57600080fd5b612c278882890161267b565b969995985093965092949392505050565b600080600060608486031215612c4d57600080fd5b83356129d881612814565b60008060408385031215612c6b57600080fd5b8235612c7681612814565b9150612c846020840161276f565b90509250929050565b60008060408385031215612ca057600080fd5b612ca98361266a565b9150612c846020840161271c565b634e487b7160e01b600052601160045260246000fd5b60006001600160401b0380831681811415612cea57612cea612cb7565b6001019392505050565b81835281816020850137506000828201602090810191909152601f909101601f19169091010190565b8481526001600160a01b0384166020820152606060408201819052600090612d489083018486612cf4565b9695505050505050565b60005b83811015612d6d578181015183820152602001612d55565b83811115612d7c576000848401525b50505050565b600060208284031215612d9457600080fd5b81516001600160401b03811115612daa57600080fd5b8201601f81018413612dbb57600080fd5b8051612dc9612b9082612b11565b818152856020838501011115612dde57600080fd5b6124e6826020830160208601612d52565b60008151808452612e07816020860160208601612d52565b601f01601f19169290920160200192915050565b60ff871681528560208201526001600160401b038516604082015260a060608201526000612e4d60a083018587612cf4565b8281036080840152612e5f8185612def565b9998505050505050505050565b60ff851681526001600160401b038416602082015260808101612e926040830185612a60565b82606083015295945050505050565b6bffffffffffffffffffffffff198460601b168152818360148301376000910160140190815292915050565b8381526040602082015260006124e6604083018486612cf4565b6020815260006114346020830184612def565b634e487b7160e01b600052603260045260246000fd5b6000600019821415612f2457612f24612cb7565b5060010190565b600060ff821660ff811415612f4257612f42612cb7565b60010192915050565b600082821015612f5d57612f5d612cb7565b500390565b634e487b7160e01b600052603160045260246000fdfe968626a768e76ba1363efe44e322a6c4900c5f084e0b45f35e294dfddaa9e0d5e2b7fb3b832174769106daebcfd6d1970523240dda11281102db9363b83b0dc4a264697066735822122005337b1ae2741543b0757ba2c9256e53c581d28eb772bce58ba54c91052157e564736f6c634300080b0033",
  "immutableReferences": {},
  "source": "// SPDX-License-Identifier: LGPL-3.0-only\npragma solidity 0.8.11;\npragma experimental ABIEncoderV2;\n\nimport \"./utils/AccessControl.sol\";\nimport \"./utils/Pausable.sol\";\nimport \"./utils/SafeMath.sol\";\nimport \"./utils/SafeCast.sol\";\nimport \"./interfaces/IDepositExecute.sol\";\nimport \"./interfaces/IERCHandler.sol\";\nimport \"./interfaces/IGenericHandler.sol\";\n\n/**\n    @title Facilitates deposits, creation and voting of deposit proposals, and deposit executions.\n    @author ChainSafe Systems.\n */\ncontract Bridge is Pausable, AccessControl, SafeMath {\n    using SafeCast for *;\n\n    // Limit relayers number because proposal can fit only so much votes\n    uint256 constant public MAX_RELAYERS = 200;\n\n    uint8   public _domainID;\n    uint8   public _relayerThreshold;\n    uint128 public _fee;\n    uint40  public _expiry;\n\n    enum ProposalStatus {Inactive, Active, Passed, Executed, Cancelled}\n\n    struct Proposal {\n        ProposalStatus _status;\n        uint200 _yesVotes;      // bitmap, 200 maximum votes\n        uint8   _yesVotesTotal;\n        uint40  _proposedBlock; // 1099511627775 maximum block\n    }\n\n    // destinationDomainID => number of deposits\n    mapping(uint8 => uint64) public _depositCounts;\n    // resourceID => handler address\n    mapping(bytes32 => address) public _resourceIDToHandlerAddress;\n    // forwarder address => is Valid\n    mapping(address => bool) public isValidForwarder;\n    // destinationDomainID + depositNonce => dataHash => Proposal\n    mapping(uint72 => mapping(bytes32 => Proposal)) private _proposals;\n\n    event RelayerThresholdChanged(uint256 newThreshold);\n    event RelayerAdded(address relayer);\n    event RelayerRemoved(address relayer);\n    event Deposit(\n        uint8   destinationDomainID,\n        bytes32 resourceID,\n        uint64  depositNonce,\n        address indexed user,\n        bytes data,\n        bytes handlerResponse\n    );\n    event ProposalEvent(\n        uint8          originDomainID,\n        uint64         depositNonce,\n        ProposalStatus status,\n        bytes32 dataHash\n    );\n    event ProposalVote(\n        uint8   originDomainID,\n        uint64  depositNonce,\n        ProposalStatus status,\n        bytes32 dataHash\n    );\n    event FailedHandlerExecution(\n        bytes lowLevelData\n    );\n\n    bytes32 public constant RELAYER_ROLE = keccak256(\"RELAYER_ROLE\");\n\n    modifier onlyAdmin() {\n        _onlyAdmin();\n        _;\n    }\n\n    modifier onlyAdminOrRelayer() {\n        _onlyAdminOrRelayer();\n        _;\n    }\n\n    modifier onlyRelayers() {\n        _onlyRelayers();\n        _;\n    }\n\n    function _onlyAdminOrRelayer() private view {\n        address sender = _msgSender();\n        require(hasRole(DEFAULT_ADMIN_ROLE, sender) || hasRole(RELAYER_ROLE, sender),\n            \"sender is not relayer or admin\");\n    }\n\n    function _onlyAdmin() private view {\n        require(hasRole(DEFAULT_ADMIN_ROLE, _msgSender()), \"sender doesn't have admin role\");\n    }\n\n    function _onlyRelayers() private view {\n        require(hasRole(RELAYER_ROLE, _msgSender()), \"sender doesn't have relayer role\");\n    }\n\n    function _relayerBit(address relayer) private view returns(uint) {\n        return uint(1) << sub(AccessControl.getRoleMemberIndex(RELAYER_ROLE, relayer), 1);\n    }\n\n    function _hasVoted(Proposal memory proposal, address relayer) private view returns(bool) {\n        return (_relayerBit(relayer) & uint(proposal._yesVotes)) > 0;\n    }\n\n    function _msgSender() internal override view returns (address) {\n        address signer = msg.sender;\n        if (msg.data.length >= 20 && isValidForwarder[signer]) {\n            assembly {\n                signer := shr(96, calldataload(sub(calldatasize(), 20)))\n            }\n        }\n        return signer;\n    }\n\n    /**\n        @notice Initializes Bridge, creates and grants {_msgSender()} the admin role,\n        creates and grants {initialRelayers} the relayer role.\n        @param domainID ID of chain the Bridge contract exists on.\n        @param initialRelayers Addresses that should be initially granted the relayer role.\n        @param initialRelayerThreshold Number of votes needed for a deposit proposal to be considered passed.\n     */\n    constructor (uint8 domainID, address[] memory initialRelayers, uint256 initialRelayerThreshold, uint256 fee, uint256 expiry) public {\n        _domainID = domainID;\n        _relayerThreshold = initialRelayerThreshold.toUint8();\n        _fee = fee.toUint128();\n        _expiry = expiry.toUint40();\n\n        _setupRole(DEFAULT_ADMIN_ROLE, _msgSender());\n\n        for (uint256 i; i < initialRelayers.length; i++) {\n            grantRole(RELAYER_ROLE, initialRelayers[i]);\n        }\n    }\n\n    /**\n        @notice Returns true if {relayer} has voted on {destNonce} {dataHash} proposal.\n        @notice Naming left unchanged for backward compatibility.\n        @param destNonce destinationDomainID + depositNonce of the proposal.\n        @param dataHash Hash of data to be provided when deposit proposal is executed.\n        @param relayer Address to check.\n     */\n    function _hasVotedOnProposal(uint72 destNonce, bytes32 dataHash, address relayer) public view returns(bool) {\n        return _hasVoted(_proposals[destNonce][dataHash], relayer);\n    }\n\n    /**\n        @notice Returns true if {relayer} has the relayer role.\n        @param relayer Address to check.\n     */\n    function isRelayer(address relayer) external view returns (bool) {\n        return hasRole(RELAYER_ROLE, relayer);\n    }\n\n    /**\n        @notice Removes admin role from {_msgSender()} and grants it to {newAdmin}.\n        @notice Only callable by an address that currently has the admin role.\n        @param newAdmin Address that admin role will be granted to.\n     */\n    function renounceAdmin(address newAdmin) external onlyAdmin {\n        address sender = _msgSender();\n        require(sender != newAdmin, 'Cannot renounce oneself');\n        grantRole(DEFAULT_ADMIN_ROLE, newAdmin);\n        renounceRole(DEFAULT_ADMIN_ROLE, sender);\n    }\n\n    /**\n        @notice Pauses deposits, proposal creation and voting, and deposit executions.\n        @notice Only callable by an address that currently has the admin role.\n     */\n    function adminPauseTransfers() external onlyAdmin {\n        _pause(_msgSender());\n    }\n\n    /**\n        @notice Unpauses deposits, proposal creation and voting, and deposit executions.\n        @notice Only callable by an address that currently has the admin role.\n     */\n    function adminUnpauseTransfers() external onlyAdmin {\n        _unpause(_msgSender());\n    }\n\n    /**\n        @notice Modifies the number of votes required for a proposal to be considered passed.\n        @notice Only callable by an address that currently has the admin role.\n        @param newThreshold Value {_relayerThreshold} will be changed to.\n        @notice Emits {RelayerThresholdChanged} event.\n     */\n    function adminChangeRelayerThreshold(uint256 newThreshold) external onlyAdmin {\n        _relayerThreshold = newThreshold.toUint8();\n        emit RelayerThresholdChanged(newThreshold);\n    }\n\n    /**\n        @notice Grants {relayerAddress} the relayer role.\n        @notice Only callable by an address that currently has the admin role, which is\n                checked in grantRole().\n        @param relayerAddress Address of relayer to be added.\n        @notice Emits {RelayerAdded} event.\n     */\n    function adminAddRelayer(address relayerAddress) external {\n        require(!hasRole(RELAYER_ROLE, relayerAddress), \"addr already has relayer role!\");\n        require(_totalRelayers() < MAX_RELAYERS, \"relayers limit reached\");\n        grantRole(RELAYER_ROLE, relayerAddress);\n        emit RelayerAdded(relayerAddress);\n    }\n\n    /**\n        @notice Removes relayer role for {relayerAddress}.\n        @notice Only callable by an address that currently has the admin role, which is\n                checked in revokeRole().\n        @param relayerAddress Address of relayer to be removed.\n        @notice Emits {RelayerRemoved} event.\n     */\n    function adminRemoveRelayer(address relayerAddress) external {\n        require(hasRole(RELAYER_ROLE, relayerAddress), \"addr doesn't have relayer role!\");\n        revokeRole(RELAYER_ROLE, relayerAddress);\n        emit RelayerRemoved(relayerAddress);\n    }\n\n    /**\n        @notice Sets a new resource for handler contracts that use the IERCHandler interface,\n        and maps the {handlerAddress} to {resourceID} in {_resourceIDToHandlerAddress}.\n        @notice Only callable by an address that currently has the admin role.\n        @param handlerAddress Address of handler resource will be set for.\n        @param resourceID ResourceID to be used when making deposits.\n        @param tokenAddress Address of contract to be called when a deposit is made and a deposited is executed.\n     */\n    function adminSetResource(address handlerAddress, bytes32 resourceID, address tokenAddress) external onlyAdmin {\n        _resourceIDToHandlerAddress[resourceID] = handlerAddress;\n        IERCHandler handler = IERCHandler(handlerAddress);\n        handler.setResource(resourceID, tokenAddress);\n    }\n\n    /**\n        @notice Sets a new resource for handler contracts that use the IGenericHandler interface,\n        and maps the {handlerAddress} to {resourceID} in {_resourceIDToHandlerAddress}.\n        @notice Only callable by an address that currently has the admin role.\n        @param handlerAddress Address of handler resource will be set for.\n        @param resourceID ResourceID to be used when making deposits.\n        @param contractAddress Address of contract to be called when a deposit is made and a deposited is executed.\n     */\n    function adminSetGenericResource(\n        address handlerAddress,\n        bytes32 resourceID,\n        address contractAddress,\n        bytes4 depositFunctionSig,\n        uint256 depositFunctionDepositerOffset,\n        bytes4 executeFunctionSig\n    ) external onlyAdmin {\n        _resourceIDToHandlerAddress[resourceID] = handlerAddress;\n        IGenericHandler handler = IGenericHandler(handlerAddress);\n        handler.setResource(resourceID, contractAddress, depositFunctionSig, depositFunctionDepositerOffset, executeFunctionSig);\n    }\n\n    /**\n        @notice Sets a resource as burnable for handler contracts that use the IERCHandler interface.\n        @notice Only callable by an address that currently has the admin role.\n        @param handlerAddress Address of handler resource will be set for.\n        @param tokenAddress Address of contract to be called when a deposit is made and a deposited is executed.\n     */\n    function adminSetBurnable(address handlerAddress, address tokenAddress) external onlyAdmin {\n        IERCHandler handler = IERCHandler(handlerAddress);\n        handler.setBurnable(tokenAddress);\n    }\n\n    /**\n        @notice Sets the nonce for the specific domainID.\n        @notice Only callable by an address that currently has the admin role.\n        @param domainID Domain ID for increasing nonce.\n        @param nonce The nonce value to be set.\n     */\n    function adminSetDepositNonce(uint8 domainID, uint64 nonce) external onlyAdmin {\n        require(nonce > _depositCounts[domainID], \"Does not allow decrements of the nonce\");\n        _depositCounts[domainID] = nonce;\n    }\n\n    /**\n        @notice Set a forwarder to be used.\n        @notice Only callable by an address that currently has the admin role.\n        @param forwarder Forwarder address to be added.\n        @param valid Decision for the specific forwarder.\n     */\n    function adminSetForwarder(address forwarder, bool valid) external onlyAdmin {\n        isValidForwarder[forwarder] = valid;\n    }\n\n    /**\n        @notice Returns a proposal.\n        @param originDomainID Chain ID deposit originated from.\n        @param depositNonce ID of proposal generated by proposal's origin Bridge contract.\n        @param dataHash Hash of data to be provided when deposit proposal is executed.\n        @return Proposal which consists of:\n        - _dataHash Hash of data to be provided when deposit proposal is executed.\n        - _yesVotes Number of votes in favor of proposal.\n        - _noVotes Number of votes against proposal.\n        - _status Current status of proposal.\n     */\n    function getProposal(uint8 originDomainID, uint64 depositNonce, bytes32 dataHash) external view returns (Proposal memory) {\n        uint72 nonceAndID = (uint72(depositNonce) << 8) | uint72(originDomainID);\n        return _proposals[nonceAndID][dataHash];\n    }\n\n    /**\n        @notice Returns total relayers number.\n        @notice Added for backwards compatibility.\n     */\n    function _totalRelayers() public view returns (uint) {\n        return AccessControl.getRoleMemberCount(RELAYER_ROLE);\n    }\n\n    /**\n        @notice Changes deposit fee.\n        @notice Only callable by admin.\n        @param newFee Value {_fee} will be updated to.\n     */\n    function adminChangeFee(uint256 newFee) external onlyAdmin {\n        require(_fee != newFee, \"Current fee is equal to new fee\");\n        _fee = newFee.toUint128();\n    }\n\n    /**\n        @notice Used to manually withdraw funds from ERC safes.\n        @param handlerAddress Address of handler to withdraw from.\n        @param data ABI-encoded withdrawal params relevant to the specified handler.\n     */\n    function adminWithdraw(\n        address handlerAddress,\n        bytes memory data\n    ) external onlyAdmin {\n        IERCHandler handler = IERCHandler(handlerAddress);\n        handler.withdraw(data);\n    }\n\n    /**\n        @notice Initiates a transfer using a specified handler contract.\n        @notice Only callable when Bridge is not paused.\n        @param destinationDomainID ID of chain deposit will be bridged to.\n        @param resourceID ResourceID used to find address of handler to be used for deposit.\n        @param data Additional data to be passed to specified handler.\n        @notice Emits {Deposit} event with all necessary parameters and a handler response.\n        - ERC20Handler: responds with an empty data.\n        - ERC721Handler: responds with the deposited token metadata acquired by calling a tokenURI method in the token contract.\n        - GenericHandler: responds with the raw bytes returned from the call to the target contract.\n     */\n    function deposit(uint8 destinationDomainID, bytes32 resourceID, bytes calldata data) external payable whenNotPaused {\n        require(msg.value == _fee, \"Incorrect fee supplied\");\n\n        address handler = _resourceIDToHandlerAddress[resourceID];\n        require(handler != address(0), \"resourceID not mapped to handler\");\n\n        uint64 depositNonce = ++_depositCounts[destinationDomainID];\n        address sender = _msgSender();\n\n        IDepositExecute depositHandler = IDepositExecute(handler);\n        bytes memory handlerResponse = depositHandler.deposit(resourceID, sender, data);\n\n        emit Deposit(destinationDomainID, resourceID, depositNonce, sender, data, handlerResponse);\n    }\n\n    /**\n        @notice When called, {_msgSender()} will be marked as voting in favor of proposal.\n        @notice Only callable by relayers when Bridge is not paused.\n        @param domainID ID of chain deposit originated from.\n        @param depositNonce ID of deposited generated by origin Bridge contract.\n        @param data Data originally provided when deposit was made.\n        @notice Proposal must not have already been passed or executed.\n        @notice {_msgSender()} must not have already voted on proposal.\n        @notice Emits {ProposalEvent} event with status indicating the proposal status.\n        @notice Emits {ProposalVote} event.\n     */\n    function voteProposal(uint8 domainID, uint64 depositNonce, bytes32 resourceID, bytes calldata data) external onlyRelayers whenNotPaused {\n        address handler = _resourceIDToHandlerAddress[resourceID];\n        uint72 nonceAndID = (uint72(depositNonce) << 8) | uint72(domainID);\n        bytes32 dataHash = keccak256(abi.encodePacked(handler, data));\n        Proposal memory proposal = _proposals[nonceAndID][dataHash];\n\n        require(_resourceIDToHandlerAddress[resourceID] != address(0), \"no handler for resourceID\");\n\n        if (proposal._status == ProposalStatus.Passed) {\n            executeProposal(domainID, depositNonce, data, resourceID, true);\n            return;\n        }\n\n        address sender = _msgSender();\n        \n        require(uint(proposal._status) <= 1, \"proposal already executed/cancelled\");\n        require(!_hasVoted(proposal, sender), \"relayer already voted\");\n\n        if (proposal._status == ProposalStatus.Inactive) {\n            proposal = Proposal({\n                _status : ProposalStatus.Active,\n                _yesVotes : 0,\n                _yesVotesTotal : 0,\n                _proposedBlock : uint40(block.number) // Overflow is desired.\n            });\n\n            emit ProposalEvent(domainID, depositNonce, ProposalStatus.Active, dataHash);\n        } else if (uint40(sub(block.number, proposal._proposedBlock)) > _expiry) {\n            // if the number of blocks that has passed since this proposal was\n            // submitted exceeds the expiry threshold set, cancel the proposal\n            proposal._status = ProposalStatus.Cancelled;\n\n            emit ProposalEvent(domainID, depositNonce, ProposalStatus.Cancelled, dataHash);\n        }\n\n        if (proposal._status != ProposalStatus.Cancelled) {\n            proposal._yesVotes = (proposal._yesVotes | _relayerBit(sender)).toUint200();\n            proposal._yesVotesTotal++; // TODO: check if bit counting is cheaper.\n\n            emit ProposalVote(domainID, depositNonce, proposal._status, dataHash);\n\n            // Finalize if _relayerThreshold has been reached\n            if (proposal._yesVotesTotal >= _relayerThreshold) {\n                proposal._status = ProposalStatus.Passed;\n                emit ProposalEvent(domainID, depositNonce, ProposalStatus.Passed, dataHash);\n            }\n        }\n        _proposals[nonceAndID][dataHash] = proposal;\n\n        if (proposal._status == ProposalStatus.Passed) {\n            executeProposal(domainID, depositNonce, data, resourceID, false);\n        }\n    }\n\n    /**\n        @notice Cancels a deposit proposal that has not been executed yet.\n        @notice Only callable by relayers when Bridge is not paused.\n        @param domainID ID of chain deposit originated from.\n        @param depositNonce ID of deposited generated by origin Bridge contract.\n        @param dataHash Hash of data originally provided when deposit was made.\n        @notice Proposal must be past expiry threshold.\n        @notice Emits {ProposalEvent} event with status {Cancelled}.\n     */\n    function cancelProposal(uint8 domainID, uint64 depositNonce, bytes32 dataHash) public onlyAdminOrRelayer {\n        uint72 nonceAndID = (uint72(depositNonce) << 8) | uint72(domainID);\n        Proposal memory proposal = _proposals[nonceAndID][dataHash];\n        ProposalStatus currentStatus = proposal._status;\n\n        require(currentStatus == ProposalStatus.Active || currentStatus == ProposalStatus.Passed,\n            \"Proposal cannot be cancelled\");\n        require(uint40(sub(block.number, proposal._proposedBlock)) > _expiry, \"Proposal not at expiry threshold\");\n\n        proposal._status = ProposalStatus.Cancelled;\n        _proposals[nonceAndID][dataHash] = proposal;\n\n        emit ProposalEvent(domainID, depositNonce, ProposalStatus.Cancelled, dataHash);\n    }\n\n    /**\n        @notice Executes a deposit proposal that is considered passed using a specified handler contract.\n        @notice Only callable by relayers when Bridge is not paused.\n        @param domainID ID of chain deposit originated from.\n        @param resourceID ResourceID to be used when making deposits.\n        @param depositNonce ID of deposited generated by origin Bridge contract.\n        @param data Data originally provided when deposit was made.\n        @param revertOnFail Decision if the transaction should be reverted in case of handler's executeProposal is reverted or not.\n        @notice Proposal must have Passed status.\n        @notice Hash of {data} must equal proposal's {dataHash}.\n        @notice Emits {ProposalEvent} event with status {Executed}.\n        @notice Emits {FailedExecution} event with the failed reason.\n     */\n    function executeProposal(uint8 domainID, uint64 depositNonce, bytes calldata data, bytes32 resourceID, bool revertOnFail) public onlyRelayers whenNotPaused {\n        address handler = _resourceIDToHandlerAddress[resourceID];\n        uint72 nonceAndID = (uint72(depositNonce) << 8) | uint72(domainID);\n        bytes32 dataHash = keccak256(abi.encodePacked(handler, data));\n        Proposal storage proposal = _proposals[nonceAndID][dataHash];\n\n        require(proposal._status == ProposalStatus.Passed, \"Proposal must have Passed status\");\n\n        proposal._status = ProposalStatus.Executed;\n        IDepositExecute depositHandler = IDepositExecute(handler);\n\n        if (revertOnFail) {\n            depositHandler.executeProposal(resourceID, data);\n        } else {\n            try depositHandler.executeProposal(resourceID, data) {\n            } catch (bytes memory lowLevelData) {\n                proposal._status = ProposalStatus.Passed;\n                emit FailedHandlerExecution(lowLevelData);\n                return;\n            }\n        }\n        \n        emit ProposalEvent(domainID, depositNonce, ProposalStatus.Executed, dataHash);\n    }\n\n    /**\n        @notice Transfers eth in the contract to the specified addresses. The parameters addrs and amounts are mapped 1-1.\n        This means that the address at index 0 for addrs will receive the amount (in WEI) from amounts at index 0.\n        @param addrs Array of addresses to transfer {amounts} to.\n        @param amounts Array of amonuts to transfer to {addrs}.\n     */\n    function transferFunds(address payable[] calldata addrs, uint[] calldata amounts) external onlyAdmin {\n        for (uint256 i = 0; i < addrs.length; i++) {\n            addrs[i].transfer(amounts[i]);\n        }\n    }\n}\n",
  "sourcePath": "/home/bernie/go/src/github.com/xx-labs/chainbridge/ChainBridge/solidity/contracts/Bridge.sol",
  "compiler": {
    "name": "solc",
    "version": "0.8.11+commit.d7f03943.Emscripten.clang"
  },
  "schemaVersion": "3.4.4",
  "updatedAt": "2024-02-14T16:25:58.282Z",
  "devdoc": {
    "author": "ChainSafe Systems.",
    "kind": "dev",
    "methods": {
      "_hasVotedOnProposal(uint72,bytes32,address)": {
        "params": {
          "dataHash": "Hash of data to be provided when deposit proposal is executed.",
          "destNonce": "destinationDomainID + depositNonce of the proposal.",
          "relayer": "Address to check."
        }
      },
      "adminAddRelayer(address)": {
        "params": {
          "relayerAddress": "Address of relayer to be added."
        }
      },
      "adminChangeFee(uint256)": {
        "params": {
          "newFee": "Value {_fee} will be updated to."
        }
      },
      "adminChangeRelayerThreshold(uint256)": {
        "params": {
          "newThreshold": "Value {_relayerThreshold} will be changed to."
        }
      },
      "adminRemoveRelayer(address)": {
        "params": {
          "relayerAddress": "Address of relayer to be removed."
        }
      },
      "adminSetBurnable(address,address)": {
        "params": {
          "handlerAddress": "Address of handler resource will be set for.",
          "tokenAddress": "Address of contract to be called when a deposit is made and a deposited is executed."
        }
      },
      "adminSetDepositNonce(uint8,uint64)": {
        "params": {
          "domainID": "Domain ID for increasing nonce.",
          "nonce": "The nonce value to be set."
        }
      },
      "adminSetForwarder(address,bool)": {
        "params": {
          "forwarder": "Forwarder address to be added.",
          "valid": "Decision for the specific forwarder."
        }
      },
      "adminSetGenericResource(address,bytes32,address,bytes4,uint256,bytes4)": {
        "params": {
          "contractAddress": "Address of contract to be called when a deposit is made and a deposited is executed.",
          "handlerAddress": "Address of handler resource will be set for.",
          "resourceID": "ResourceID to be used when making deposits."
        }
      },
      "adminSetResource(address,bytes32,address)": {
        "params": {
          "handlerAddress": "Address of handler resource will be set for.",
          "resourceID": "ResourceID to be used when making deposits.",
          "tokenAddress": "Address of contract to be called when a deposit is made and a deposited is executed."
        }
      },
      "adminWithdraw(address,bytes)": {
        "params": {
          "data": "ABI-encoded withdrawal params relevant to the specified handler.",
          "handlerAddress": "Address of handler to withdraw from."
        }
      },
      "cancelProposal(uint8,uint64,bytes32)": {
        "params": {
          "dataHash": "Hash of data originally provided when deposit was made.",
          "depositNonce": "ID of deposited generated by origin Bridge contract.",
          "domainID": "ID of chain deposit originated from."
        }
      },
      "constructor": {
        "params": {
          "domainID": "ID of chain the Bridge contract exists on.",
          "initialRelayerThreshold": "Number of votes needed for a deposit proposal to be considered passed.",
          "initialRelayers": "Addresses that should be initially granted the relayer role."
        }
      },
      "deposit(uint8,bytes32,bytes)": {
        "params": {
          "data": "Additional data to be passed to specified handler.",
          "destinationDomainID": "ID of chain deposit will be bridged to.",
          "resourceID": "ResourceID used to find address of handler to be used for deposit."
        }
      },
      "executeProposal(uint8,uint64,bytes,bytes32,bool)": {
        "params": {
          "data": "Data originally provided when deposit was made.",
          "depositNonce": "ID of deposited generated by origin Bridge contract.",
          "domainID": "ID of chain deposit originated from.",
          "resourceID": "ResourceID to be used when making deposits.",
          "revertOnFail": "Decision if the transaction should be reverted in case of handler's executeProposal is reverted or not."
        }
      },
      "getProposal(uint8,uint64,bytes32)": {
        "params": {
          "dataHash": "Hash of data to be provided when deposit proposal is executed.",
          "depositNonce": "ID of proposal generated by proposal's origin Bridge contract.",
          "originDomainID": "Chain ID deposit originated from."
        },
        "returns": {
          "_0": "Proposal which consists of: - _dataHash Hash of data to be provided when deposit proposal is executed. - _yesVotes Number of votes in favor of proposal. - _noVotes Number of votes against proposal. - _status Current status of proposal."
        }
      },
      "getRoleAdmin(bytes32)": {
        "details": "Returns the admin role that controls `role`. See {grantRole} and {revokeRole}. To change a role's admin, use {_setRoleAdmin}."
      },
      "getRoleMember(bytes32,uint256)": {
        "details": "Returns one of the accounts that have `role`. `index` must be a value between 0 and {getRoleMemberCount}, non-inclusive. Role bearers are not sorted in any particular way, and their ordering may change at any point. WARNING: When using {getRoleMember} and {getRoleMemberCount}, make sure you perform all queries on the same block. See the following https://forum.openzeppelin.com/t/iterating-over-elements-on-enumerableset-in-openzeppelin-contracts/2296[forum post] for more information."
      },
      "getRoleMemberCount(bytes32)": {
        "details": "Returns the number of accounts that have `role`. Can be used together with {getRoleMember} to enumerate all bearers of a role."
      },
      "getRoleMemberIndex(bytes32,address)": {
        "details": "Returns the index of the account that have `role`."
      },
      "grantRole(bytes32,address)": {
        "details": "Grants `role` to `account`. If `account` had not been already granted `role`, emits a {RoleGranted} event. Requirements: - the caller must have ``role``'s admin role."
      },
      "hasRole(bytes32,address)": {
        "details": "Returns `true` if `account` has been granted `role`."
      },
      "isRelayer(address)": {
        "params": {
          "relayer": "Address to check."
        }
      },
      "paused()": {
        "details": "Returns true if the contract is paused, and false otherwise."
      },
      "renounceAdmin(address)": {
        "params": {
          "newAdmin": "Address that admin role will be granted to."
        }
      },
      "renounceRole(bytes32,address)": {
        "details": "Revokes `role` from the calling account. Roles are often managed via {grantRole} and {revokeRole}: this function's purpose is to provide a mechanism for accounts to lose their privileges if they are compromised (such as when a trusted device is misplaced). If the calling account had been granted `role`, emits a {RoleRevoked} event. Requirements: - the caller must be `account`."
      },
      "revokeRole(bytes32,address)": {
        "details": "Revokes `role` from `account`. If `account` had been granted `role`, emits a {RoleRevoked} event. Requirements: - the caller must have ``role``'s admin role."
      },
      "transferFunds(address[],uint256[])": {
        "params": {
          "addrs": "Array of addresses to transfer {amounts} to.",
          "amounts": "Array of amonuts to transfer to {addrs}."
        }
      },
      "voteProposal(uint8,uint64,bytes32,bytes)": {
        "params": {
          "data": "Data originally provided when deposit was made.",
          "depositNonce": "ID of deposited generated by origin Bridge contract.",
          "domainID": "ID of chain deposit originated from."
        }
      }
    },
    "title": "Facilitates deposits, creation and voting of deposit proposals, and deposit executions.",
    "version": 1
  },
  "userdoc": {
    "kind": "user",
    "methods": {
      "_hasVotedOnProposal(uint72,bytes32,address)": {
        "notice": "Returns true if {relayer} has voted on {destNonce} {dataHash} proposal.Naming left unchanged for backward compatibility."
      },
      "_totalRelayers()": {
        "notice": "Returns total relayers number.Added for backwards compatibility."
      },
      "adminAddRelayer(address)": {
        "notice": "Grants {relayerAddress} the relayer role.Only callable by an address that currently has the admin role, which is checked in grantRole().Emits {RelayerAdded} event."
      },
      "adminChangeFee(uint256)": {
        "notice": "Changes deposit fee.Only callable by admin."
      },
      "adminChangeRelayerThreshold(uint256)": {
        "notice": "Modifies the number of votes required for a proposal to be considered passed.Only callable by an address that currently has the admin role.Emits {RelayerThresholdChanged} event."
      },
      "adminPauseTransfers()": {
        "notice": "Pauses deposits, proposal creation and voting, and deposit executions.Only callable by an address that currently has the admin role."
      },
      "adminRemoveRelayer(address)": {
        "notice": "Removes relayer role for {relayerAddress}.Only callable by an address that currently has the admin role, which is checked in revokeRole().Emits {RelayerRemoved} event."
      },
      "adminSetBurnable(address,address)": {
        "notice": "Sets a resource as burnable for handler contracts that use the IERCHandler interface.Only callable by an address that currently has the admin role."
      },
      "adminSetDepositNonce(uint8,uint64)": {
        "notice": "Sets the nonce for the specific domainID.Only callable by an address that currently has the admin role."
      },
      "adminSetForwarder(address,bool)": {
        "notice": "Set a forwarder to be used.Only callable by an address that currently has the admin role."
      },
      "adminSetGenericResource(address,bytes32,address,bytes4,uint256,bytes4)": {
        "notice": "Sets a new resource for handler contracts that use the IGenericHandler interface, and maps the {handlerAddress} to {resourceID} in {_resourceIDToHandlerAddress}.Only callable by an address that currently has the admin role."
      },
      "adminSetResource(address,bytes32,address)": {
        "notice": "Sets a new resource for handler contracts that use the IERCHandler interface, and maps the {handlerAddress} to {resourceID} in {_resourceIDToHandlerAddress}.Only callable by an address that currently has the admin role."
      },
      "adminUnpauseTransfers()": {
        "notice": "Unpauses deposits, proposal creation and voting, and deposit executions.Only callable by an address that currently has the admin role."
      },
      "adminWithdraw(address,bytes)": {
        "notice": "Used to manually withdraw funds from ERC safes."
      },
      "cancelProposal(uint8,uint64,bytes32)": {
        "notice": "Cancels a deposit proposal that has not been executed yet.Only callable by relayers when Bridge is not paused.Proposal must be past expiry threshold.Emits {ProposalEvent} event with status {Cancelled}."
      },
      "constructor": {
        "notice": "Initializes Bridge, creates and grants {_msgSender()} the admin role, creates and grants {initialRelayers} the relayer role."
      },
      "deposit(uint8,bytes32,bytes)": {
        "notice": "Initiates a transfer using a specified handler contract.Only callable when Bridge is not paused.Emits {Deposit} event with all necessary parameters and a handler response. - ERC20Handler: responds with an empty data. - ERC721Handler: responds with the deposited token metadata acquired by calling a tokenURI method in the token contract. - GenericHandler: responds with the raw bytes returned from the call to the target contract."
      },
      "executeProposal(uint8,uint64,bytes,bytes32,bool)": {
        "notice": "Executes a deposit proposal that is considered passed using a specified handler contract.Only callable by relayers when Bridge is not paused.Proposal must have Passed status.Hash of {data} must equal proposal's {dataHash}.Emits {ProposalEvent} event with status {Executed}.Emits {FailedExecution} event with the failed reason."
      },
      "getProposal(uint8,uint64,bytes32)": {
        "notice": "Returns a proposal."
      },
      "isRelayer(address)": {
        "notice": "Returns true if {relayer} has the relayer role."
      },
      "renounceAdmin(address)": {
        "notice": "Removes admin role from {_msgSender()} and grants it to {newAdmin}.Only callable by an address that currently has the admin role."
      },
      "transferFunds(address[],uint256[])": {
        "notice": "Transfers eth in the contract to the specified addresses. The parameters addrs and amounts are mapped 1-1. This means that the address at index 0 for addrs will receive the amount (in WEI) from amounts at index 0."
      },
      "voteProposal(uint8,uint64,bytes32,bytes)": {
        "notice": "When called, {_msgSender()} will be marked as voting in favor of proposal.Only callable by relayers when Bridge is not paused.Proposal must not have already been passed or executed.{_msgSender()} must not have already voted on proposal.Emits {ProposalEvent} event with status indicating the proposal status.Emits {ProposalVote} event."
      }
    },
    "version": 1
  }
}